{
  "_format": "hh3-artifact-1",
  "contractName": "BatchDistributor",
  "sourceName": "contracts/BatchDistributor.sol",
  "abi": [
    {
      "anonymous": false,
      "inputs": [
        {
          "indexed": true,
          "internalType": "address",
          "name": "token",
          "type": "address"
        },
        {
          "indexed": false,
          "internalType": "uint256",
          "name": "totalRecipients",
          "type": "uint256"
        },
        {
          "indexed": false,
          "internalType": "uint256",
          "name": "totalAmount",
          "type": "uint256"
        }
      ],
      "name": "BatchTransfer",
      "type": "event"
    },
    {
      "inputs": [
        {
          "internalType": "address",
          "name": "token",
          "type": "address"
        },
        {
          "internalType": "address[]",
          "name": "recipients",
          "type": "address[]"
        },
        {
          "internalType": "uint256[]",
          "name": "amounts",
          "type": "uint256[]"
        }
      ],
      "name": "distribute",
      "outputs": [],
      "stateMutability": "nonpayable",
      "type": "function"
    }
  ],
  "bytecode": "0x6080604052348015600e575f5ffd5b5061084e8061001c5f395ff3fe608060405234801561000f575f5ffd5b5060043610610029575f3560e01c806315270ace1461002d575b5f5ffd5b61004760048036038101906100429190610428565b610049565b005b818190508484905014610091576040517f08c379a000000000000000000000000000000000000000000000000000000000815260040161008890610513565b60405180910390fd5b5f5f90505f5f90505b838390508110156100d9578383828181106100b8576100b7610531565b5b90506020020135826100ca9190610594565b9150808060010191505061009a565b505f869050818173ffffffffffffffffffffffffffffffffffffffff1663dd62ed3e33306040518363ffffffff1660e01b815260040161011a9291906105d6565b602060405180830381865afa158015610135573d5f5f3e3d5ffd5b505050506040513d601f19601f820116820180604052508101906101599190610627565b101561019a576040517f08c379a00000000000000000000000000000000000000000000000000000000081526004016101919061069c565b60405180910390fd5b5f5f90505b868690508110156102b3578173ffffffffffffffffffffffffffffffffffffffff166323b872dd338989858181106101da576101d9610531565b5b90506020020160208101906101ef91906106ba565b88888681811061020257610201610531565b5b905060200201356040518463ffffffff1660e01b8152600401610227939291906106f4565b6020604051808303815f875af1158015610243573d5f5f3e3d5ffd5b505050506040513d601f19601f82011682018060405250810190610267919061075e565b6102a6576040517f08c379a000000000000000000000000000000000000000000000000000000000815260040161029d906107d3565b60405180910390fd5b808060010191505061019f565b508673ffffffffffffffffffffffffffffffffffffffff167f762d9d59f4cdcadad8125dfd5b9228c3f3710c17cd800b7e446f4bacba81a69f87879050846040516102ff9291906107f1565b60405180910390a250505050505050565b5f5ffd5b5f5ffd5b5f73ffffffffffffffffffffffffffffffffffffffff82169050919050565b5f61034182610318565b9050919050565b61035181610337565b811461035b575f5ffd5b50565b5f8135905061036c81610348565b92915050565b5f5ffd5b5f5ffd5b5f5ffd5b5f5f83601f84011261039357610392610372565b5b8235905067ffffffffffffffff8111156103b0576103af610376565b5b6020830191508360208202830111156103cc576103cb61037a565b5b9250929050565b5f5f83601f8401126103e8576103e7610372565b5b8235905067ffffffffffffffff81111561040557610404610376565b5b6020830191508360208202830111156104215761042061037a565b5b9250929050565b5f5f5f5f5f6060868803121561044157610440610310565b5b5f61044e8882890161035e565b955050602086013567ffffffffffffffff81111561046f5761046e610314565b5b61047b8882890161037e565b9450945050604086013567ffffffffffffffff81111561049e5761049d610314565b5b6104aa888289016103d3565b92509250509295509295909350565b5f82825260208201905092915050565b7f4c656e677468206d69736d6174636800000000000000000000000000000000005f82015250565b5f6104fd600f836104b9565b9150610508826104c9565b602082019050919050565b5f6020820190508181035f83015261052a816104f1565b9050919050565b7f4e487b71000000000000000000000000000000000000000000000000000000005f52603260045260245ffd5b5f819050919050565b7f4e487b71000000000000000000000000000000000000000000000000000000005f52601160045260245ffd5b5f61059e8261055e565b91506105a98361055e565b92508282019050808211156105c1576105c0610567565b5b92915050565b6105d081610337565b82525050565b5f6040820190506105e95f8301856105c7565b6105f660208301846105c7565b9392505050565b6106068161055e565b8114610610575f5ffd5b50565b5f81519050610621816105fd565b92915050565b5f6020828403121561063c5761063b610310565b5b5f61064984828501610613565b91505092915050565b7f496e73756666696369656e7420616c6c6f77616e6365000000000000000000005f82015250565b5f6106866016836104b9565b915061069182610652565b602082019050919050565b5f6020820190508181035f8301526106b38161067a565b9050919050565b5f602082840312156106cf576106ce610310565b5b5f6106dc8482850161035e565b91505092915050565b6106ee8161055e565b82525050565b5f6060820190506107075f8301866105c7565b61071460208301856105c7565b61072160408301846106e5565b949350505050565b5f8115159050919050565b61073d81610729565b8114610747575f5ffd5b50565b5f8151905061075881610734565b92915050565b5f6020828403121561077357610772610310565b5b5f6107808482850161074a565b91505092915050565b7f5472616e73666572206661696c656400000000000000000000000000000000005f82015250565b5f6107bd600f836104b9565b91506107c882610789565b602082019050919050565b5f6020820190508181035f8301526107ea816107b1565b9050919050565b5f6040820190506108045f8301856106e5565b61081160208301846106e5565b939250505056fea26469706673582212205cc25c626cdb3513bc32e600ae780360a90bef3230cf4926b0cc835d1c574edb64736f6c634300081c0033",
  "linkReferences": {},
  "deployedLinkReferences": {},
  "immutableReferences": {},
  "inputSourceName": "project/contracts/BatchDistributor.sol",
  "buildInfoId": "solc-0_8_28-3fd5c84fd6a46ddc50159a4c01bd61ef090f0611"
}